:020000040800F2
:10000000680600202902000865020008670200084F
:10001000690200086B0200086D0200080000000081
:100020000000000000000000000000006F02000857
:10003000710200080000000073020008651100084A
:1000400077020008770200087702000877020008AC
:10005000770200087702000877020008770200089C
:10006000770200087702000877020008770200088C
:10007000770200087702000877020008770200087C
:1000800077020008770200082903000877020008B9
:10009000770200087702000877020008770200085C
:1000A000770200087702000877020008770200084C
:1000B000770200087702000877020008770200083C
:1000C000770200087702000877020008770200082C
:1000D000770200087702000877020008770200081C
:1000E000770200087702000877020008770200080C
:1000F00077020008770200087702000877020008FC
:1001000077020008770200087702000877020008EB
:1001100077020008770200087702000877020008DB
:1001200077020008770200087702000877020008CB
:1001300077020008770200087702000877020008BB
:1001400077020008770200087702000877020008AB
:10015000770200087702000877020008770200089B
:10016000770200087702000877020008770200088B
:1001700077020008770200087702000800000000FC
:10018000770200087702000800F002F800F03CF85F
:100190000AA090E8000C82448344AAF10107DA45E2
:1001A00001D100F031F8AFF2090EBAE80F0013F0F8
:1001B000010F18BFFB1A43F0010318478412000017
:1001C000A4120000103A24BF78C878C1FAD85207A8
:1001D00024BF30C830C144BF04680C6070470000C1
:1001E0000023002400250026103A28BF78C1FBD840
:1001F000520728BF30C148BF0B6070471FB501F0E0
:10020000F5F81FBD10B510BD00F053F81146FFF70B
:10021000F5FF01F02BF800F071F803B4FFF7F2FFDF
:1002200003BC00F079F8000016481749174B9942B3
:100230003CBF50F8042B41F8042BF8D314494FF07D
:1002400000028B4238BF43F8042BFAD3DFF8440096
:10025000016841F470010160BFF34F8FBFF36F8FEE
:100260000D480047FEE7FEE7FEE7FEE7FEE7FEE794
:10027000FEE7FEE7FEE7FEE708480949094A0A4BA0
:1002800070470000601400080000002004000020F7
:100290006806002088ED00E0890100086800002061
:1002A000680600206802002068020020704770473E
:1002B0007047754600F02CF8AE4605006946534677
:1002C00020F00700854618B020B5FFF7D5FFBDE840
:1002D00020404FF000064FF000074FF000084FF0AD
:1002E000000B21F00701AC46ACE8C009ACE8C0093E
:1002F000ACE8C009ACE8C0098D46704710B50446AB
:10030000AFF300802046BDE81040FFF786BF000035
:10031000004870470400002001491820ABBEFEE7EA
:1003200026000200704700001220002807DB00F0C2
:100330001F02012191400F4A430942F8231000BFD8
:100340000D48006800F00400042805D10A48006840
:1003500040F00400084908600748006800F0080001
:10036000082805D10448006840F0080002490860E8
:100370007047000080E200E000000450002000BF51
:100380000B49096801F004010029F9D1002006E0B9
:10039000002207490C3141F82020411CC8B20F2827
:1003A000F6DD0349096841F00401014A1160704714
:1003B000082400402F48806D00F0805028B92D4857
:1003C000806D40F080502B4988652A48806D2A480E
:1003D000006800F4807060B92748006840F48070BD
:1003E0002549086000BF2448006800F48070002898
:1003F000F9D020489030006820F005001D49C1F870
:1004000090000846D0F8900040F48030C1F8900089
:100410000846D0F8900020F48030C1F8900007E042
:1004200014489030006840F001001249C1F8900073
:1004300010489030006800F002000028F0D00D480D
:100440009030006820F440700A49C1F890000846D6
:10045000D0F8900040F48070C1F890000846806D9C
:1004600020F0805088650846806D40F400708865F3
:100470007047000000100240007000403E480068D5
:1004800020F001003C490860081D006840F470102D
:10049000091D08600846006820F070700860084672
:1004A000006820F4403008600846006820F460408E
:1004B00008600846006840F480400860084600680C
:1004C00040F0700008600846006820F4E0500860C2
:1004D0000846006840F4A05008600846006820F014
:1004E000700008600846006840F04000086000BFE7
:1004F00021480830006800F020000028F8D01E488D
:10050000006820F01C001C4908600846006840F0A4
:100510000C0008600846006820F06000086008468B
:10052000006840F0400008600846006820F0800045
:1005300008600846006820F002000860084600686D
:1005400040F00100086000BF0B480830006800F070
:1005500001000028F8D000BF07480830006800F00C
:1005600010000028F8D004480830006840F004006B
:10057000014908310860704700240040F0B50C467E
:1005800015460021002600220778342F53D00FDCB7
:10059000A7F12007142F5AD2DFE807F02359595941
:1005A00059435959282A253B5938593E494A4B4CF9
:1005B000642F1FD008DCA7F13507052F47D2DFE8ED
:1005C00007F03B3C3D3E3F00B02F27D004DC6D2FB1
:1005D00013D06E2F3BD113E0B52F14D0FF2F36D19F
:1005E00022E000214CE04AF2DD0149E0282147E009
:1005F000112145E04FF4734142E04BF210213FE0FE
:1006000042F210213CE046F2840139E04FF42041EF
:1006100036E04AF2140133E0C02131E04FF46C417E
:100620002EE04FF433412BE04FF6DD7128E000BFA0
:1006300000BF00BF00BF00BF00BF00BF00BF00BFC2
:100640000778303FDFF864C03CF8171018E00778EF
:100650005B2F08DA0778402F05DD0778413FDFF888
:1006600050C03CF8171007787B2F08DA0778602F06
:1006700005DD0778613FDFF838C03CF8171000BF90
:1006800000BF0CB141F002010DB141F020010C2678
:10069000002208E041FA06F707F00F079F54371FC2
:1006A000FEB2571CFAB2042AF4DBF0BD2A1400088B
:1006B000F613000800B500F007F8FFF77BFEFFF720
:1006C000DDFEFFF75BFE00BD5E48C06C40F00F0032
:1006D0005C49C8644FF0904000685B4908404FF0A7
:1006E0009041086008460068584908434FF090411F
:1006F00008600846006A40F03B4008620846406ACD
:10070000534908434FF090414862084680684E497B
:1007100008404FF090418860084680684B49084384
:100720004FF0904188600846C068474908404FF044
:100730009041C860474800684749084045490860FB
:10074000084600684549084342490860414820304E
:10075000006840F0BB103F49203108603D48406AC6
:100760003F4908433B4948623A48083000683A49E3
:10077000084038490831086008460068374908438E
:10078000344908310860081D006833490840314980
:100790000C3108603348006833490840314908602B
:1007A00008460068314908432E4908602D4820302A
:1007B00000682F4908432B49203108602948406AC6
:1007C00040F00B012748416226480830006826495E
:1007D0000840244908310860084600682349084356
:1007E000204908310860081D00681F4908401D495C
:1007F0000C3108601F48006880B21E490860084636
:1008000000681D4908431B4908600846406A40F0DB
:10081000BB31184841621748083000686FF30F0079
:100820001449083108600846006813490843114913
:1008300008310860081D00686FF30F00091D08608B
:100840007047000000100240FF0FC03F00A02A8048
:10085000BB0B00B000040048F0F0F3000A0A08AA3D
:10086000B000BBBB000800483F00FCFF80AA0200AC
:1008700000B0BBBB000C00480000AAAAF8B50546B2
:100880000E4617461C466B463A4631462846FFF749
:1008900075FE00BFFE48006800F004000028F9D192
:1008A000062C7DD2DFE804F00398FCFBFAF9F84847
:1008B0000C300068F7490840F5490C310860F448ED
:1008C0000838C069F3490840F1490839C861084649
:1008D000406AF0490840EE49083948620846C06A53
:1008E000EC490840EA490839C8629DF80000C00791
:1008F000C00E9DF80010C1F3400140EAC1509DF8C0
:100900000010C1F3800140EA81509DF80010C1F34E
:10091000C00140EAC100DE490C3109680843DC49E6
:100920000C3108609DF80100C007C00E9DF8011051
:10093000C1F3400140EAC1509DF80110C1F38001AC
:1009400040EA81509DF80110C1F3C00140EAC100A6
:10095000CF490839C9690843CD490839C8619DF8AC
:100960000200C007C00E9DF80210C1F3400140EA2A
:10097000C1509DF80210C1F3800140EA81509DF8FA
:100980000210C1F3C00140EAC100C1490839496AF7
:100990000843BF49083948629DF80300C00700E0DA
:1009A0002EE3C00E9DF80310C1F3400140EAC15090
:1009B0009DF80310C1F3800140EA81509DF80310B7
:1009C000C1F3C00140EAC100B1490839C96A08430E
:1009D000AF490839C86214E3AD480C30006843F2EF
:1009E00060018843AA490C310860A9480838C069E9
:1009F00043F260018843A6490839C8610846406A45
:100A000043F260018843A249083948620846C06A37
:100A100043F2600188439E490839C8629DF800008E
:100A2000C007400E9DF80010C1F3400140EA41307C
:100A30009DF80010C1F3800140EA01309DF80010DC
:100A4000C1F3C00140EA411091490C3109680843E3
:100A50008F490C3108609DF80100C007400E9DF8D9
:100A60000110C1F3400140EA41309DF80110C1F38B
:100A7000800140EA01309DF80110C1F3C00140EA55
:100A8000411083490839C969084381490839C86157
:100A90009DF80200C007400E03E028E27CE1CAE0B6
:100AA00036E09DF80210C1F3400140EA41309DF864
:100AB0000210C1F3800140EA01309DF80210C1F339
:100AC000C00140EA411072490839496A0843704937
:100AD000083948629DF80300C007400E9DF80310D6
:100AE000C1F3400140EA41309DF80310C1F3800199
:100AF00040EA01309DF80310C1F3C00140EA411003
:100B000063490839C96A084361490839C86278E20B
:100B10005F480C300068604908405D490C3108604E
:100B20005B480838C0695C49084059490839C861C0
:100B30000846406A584908405549083948620846FD
:100B4000C06A5549084052490839C8629DF80000FA
:100B5000C007000C9DF80010C1F3400140EA41704D
:100B60009DF80010C1F3800140EA01709DF800106B
:100B7000C1F3C00140EA813045490C31096808439E
:100B800043490C3108609DF80100C007000C9DF836
:100B90000110C1F3400140EA41709DF80110C1F31A
:100BA000800140EA01709DF80110C1F3C00140EAE4
:100BB000813037490839C969084335490839C8615E
:100BC0009DF80200C007000C9DF80210C1F340011F
:100BD00040EA41709DF80210C1F3800140EA0170C3
:100BE0009DF80210C1F3C00140EA8130284908395C
:100BF000496A08432649083948629DF80300C0073E
:100C0000000C9DF80310C1F3400140EA41709DF8CB
:100C10000310C1F3800140EA01709DF80310C1F395
:100C2000C00140EA81301A490839C96A08431849A5
:100C30000839C862E5E116480C30006820F04040F1
:100C400013490C31086012480838806920F003010C
:100C50000F4808388161C06920F040410C480838CD
:100C6000C161006A20F00301094808380162406A46
:100C700020F04041064808384162806A20F00301B4
:100C8000034808388162C06A20F04041004805E00E
:100C900008240040E7FF3FFFFF3FFFCF0838C16255
:100CA000006B20F00301DC4801639DF80000C007E1
:100CB0009DF80010C1F3C00140EA8170D64914319B
:100CC00009680843D449143108609DF80000C0F356
:100CD00080009DF80010C1F3400140EA4100CE4978
:100CE00089690843CC4988619DF80100C0079DF8D7
:100CF0000110C1F3C00140EA8170C749C9690843C6
:100D0000C549C8619DF80100C0F380009DF801103D
:100D1000C1F3400140EA4100BF49096A0843BE49A6
:100D200008629DF80200C0079DF80210C1F3C001DF
:100D300040EA8170B849496A0843B74948629DF85A
:100D40000200C0F380009DF80210C1F3400140EAA8
:100D50004100B149896A0843AF4988629DF80300A0
:100D6000C0079DF80310C1F3C00140EA8170AA4991
:100D7000C96A0843A849C8629DF80300C0F380000F
:100D80009DF80310C1F3400140EA4100A249096BFC
:100D90000843A149086334E19F481430006820F0FB
:100DA00040709D49143108609B48806920F00C0117
:100DB00099488161C06920F040719748C161006A1B
:100DC00020F00C0194480162406A20F04071924882
:100DD0004162806A20F00C018F488162C06A20F075
:100DE00040718D48C162006B20F00C018A4801639C
:100DF0009DF80000C0F3400040069DF80010C1F3CC
:100E0000800140EA0160844914310968084382493D
:100E1000143108609DF80000C007000F9DF8001015
:100E2000C1F3C00140EA81007B49896908437A49DE
:100E300088619DF80100C0F3400040069DF8011054
:100E4000C1F3800140EA01607349C96908437249EE
:100E5000C8619DF80100C007000F9DF80110C1F3A3
:100E6000C00140EA81006C49096A08436A49086286
:100E70009DF80200C0F3400040069DF80210C1F347
:100E8000800140EA01606449496A08436249486256
:100E90009DF80200C007000F9DF80210C1F3C001C9
:100EA00040EA81005C49896A08435B4988629DF891
:100EB0000300C0F3400040069DF80310C1F3800119
:100EC00040EA01605449C96A08435349C8629DF821
:100ED0000300C007000F9DF80310C1F3C00140EAF2
:100EE00081004D49096B08434B49086389E04A4832
:100EF00014300068494908404749143108604648A1
:100F0000C069464908404449C8610846406A4349A7
:100F10000840414948620846C06A404908403E4985
:100F2000C8629DF80000C007800B9DF80010C1F357
:100F3000400140EA01209DF80010C1F3800140EA21
:100F400041209DF80010C1F3C00140EA81603249A0
:100F50001431096808433049143108609DF80100D4
:100F6000C007800B9DF80110C1F3400140EA012049
:100F70009DF80110C1F3800140EA41209DF8011065
:100F8000C1F3C00140EA81602349C969084322498D
:100F9000C8619DF80200C007800B9DF80210C1F3E4
:100FA000400140EA01209DF80210C1F3800140EAAF
:100FB00041209DF80210C1F3C00140EA816016494A
:100FC000496A0843144948629DF80300C007800B32
:100FD0009DF80310C1F3400140EA01209DF8031081
:100FE000C1F3800140EA41209DF80310C1F3C00124
:100FF00040EA81600849C96A08430749C86200E0BD
:1010000000BF00BF04480830006840F004000249F7
:1010100008310860F8BD000000240040FFFCFDFB23
:101020004E48C06C40F010004C49C8644C48006801
:1010300020F040404A4908600846006840F080407F
:1010400008600846006820F04050086008460068C4
:1010500040F0805008600846006820F0406008605A
:101060000846006840F0806008600846006820F08C
:10107000407008600846006840F0807008600846CC
:10108000006820F4403008600846006840F4803072
:1010900008600846806820F0404088600846806804
:1010A00040F0404088600846806820F040508860EA
:1010B0000846806840F0405088600846806820F00C
:1010C000406088600846806840F04060886008465C
:1010D000806820F0407088600846806840F040706A
:1010E00088600846806820F4403088600846806840
:1010F00040F4403088600846406820F40040486072
:101100000846406820F4804048600846406820F463
:10111000005048600846406820F480504860084607
:10112000406820F4807048600846C06820F0404065
:10113000C8600846C06820F04050C8600846C068D3
:1011400020F04060C8600846C06820F04070C86069
:101150000846C06820F44030C86070470010024064
:101160000010004802480068401C014908607047B0
:101170000000002010B500204FF0E021086140F28F
:10118000E730486100208861401E0121002804DB0F
:101190000A07130E164A135406E00A07140E154ADE
:1011A00000F00F031B1FD45400BF4FF0FF30002886
:1011B00009DB00F01F02012191404209920002F177
:1011C000E022C2F8001100BF4FF0E020006940F0BB
:1011D00002004FF0E02108610846006920F0040099
:1011E00008610846006940F00100086110BD000078
:1011F00000E400E018ED00E01448006840F0010051
:10120000124908600846806820F00300886000BF2B
:101210000E48006800F002000028F9D00B48006872
:1012200020F0F000094908600846006840F07000AE
:1012300008600846006840F00800086000BF0348E6
:10124000006800F002000028F9D07047001002404A
:10125000054A116800BF044A1268521A8242FAD342
:101260000022014B1A607047000000204FF0000878
:101270000025002600274FF48054FFF7BDFFFFF73D
:10128000CFFEFFF777FFFFF715FAFFF777F8A5E036
:101290005348006840F08040514908600846406962
:1012A00040F4004048610846006840F08050086003
:1012B0000846406940F4804048610846006840F0B4
:1012C000806008600846406940F400504861084664
:1012D000006840F0807008600846406940F4805023
:1012E00048610A20FFF7B4FF3D48006820F0404005
:1012F0003B49086001E008F101083948006900F441
:1013000000400028F7D13648006820F040503449AA
:10131000086000E06D1C3248006900F4804000283D
:10132000F8D12F48006820F040602D49086000E0A7
:10133000761C2B48006900F400500028F8D128489A
:10134000006820F040702649086000E07F1C2448B7
:10135000006900F480500028F8D1A04506DD022382
:10136000002211461FA0FFF789FA05E002230022A0
:1013700011461DA0FFF782FAA54206DD03230022D5
:10138000114618A0FFF77AFA05E003230022114660
:1013900015A0FFF773FAA64206DD042300221146CA
:1013A00010A0FFF76BFA05E00423002211460EA0FF
:1013B000FFF764FAA74206DD05230022114609A0C3
:1013C000FFF75CFA05E005230022114606A0FFF7AF
:1013D00055FA4FF0000800250026002758E70000C6
:1013E0000010004842000000570000004FF040701D
:1013F000E1EE100A704700FE1467001D1447009DBF
:10140000009C003F00FA1400005341980019485A0C
:10141000095A005F00FC015F01FC00AF1404005B8F
:10142000C018815AC9005800C005005F004200F58D
:10143000006700EA00AF00BF004600FF00EF0000B9
:10144000601400080000002004000000C40100082F
:10145000641400080400002064060000E001000895
:041460000000000088
:040000050800018965
:00000001FF
