:020000040800F2
:10000000680600202902000865020008670200084F
:10001000690200086B0200086D0200080000000081
:100020000000000000000000000000006F02000857
:100030007102000800000000730200085506000865
:1000400077020008770200087702000877020008AC
:10005000770200087702000877020008770200089C
:10006000770200087702000877020008770200088C
:10007000770200087702000877020008770200087C
:10008000770200087702000877020008770200086C
:10009000770200087702000877020008770200085C
:1000A000770200087702000877020008770200084C
:1000B000770200087702000877020008770200083C
:1000C000770200087702000877020008770200082C
:1000D000770200087702000877020008770200081C
:1000E000770200087702000877020008770200080C
:1000F00077020008770200087702000877020008FC
:1001000077020008770200087702000877020008EB
:1001100077020008770200087702000877020008DB
:1001200077020008770200087702000877020008CB
:1001300077020008770200087702000877020008BB
:1001400077020008770200087702000877020008AB
:10015000770200087702000877020008770200089B
:10016000770200087702000877020008770200088B
:1001700077020008770200087702000800000000FC
:10018000770200087702000800F002F800F03CF85F
:100190000AA090E8000C82448344AAF10107DA45E2
:1001A00001D100F031F8AFF2090EBAE80F0013F0F8
:1001B000010F18BFFB1A43F001031847880600001F
:1001C000A8060000103A24BF78C878C1FAD85207B0
:1001D00024BF30C830C144BF04680C6070470000C1
:1001E0000023002400250026103A28BF78C1FBD840
:1001F000520728BF30C148BF0B6070471FB500F0E1
:100200001CFB1FBD10B510BD00F053F81146FFF7E1
:10021000F5FF00F0A3FA00F071F803B4FFF7F2FF66
:1002200003BC00F079F8000016481749174B9942B3
:100230003CBF50F8042B41F8042BF8D314494FF07D
:1002400000028B4238BF43F8042BFAD3DFF8440096
:10025000016841F470010160BFF34F8FBFF36F8FEE
:100260000D480047FEE7FEE7FEE7FEE7FEE7FEE794
:10027000FEE7FEE7FEE7FEE708480949094A0A4BA0
:1002800070470000640800080000002004000020FF
:100290006806002088ED00E0890100086800002061
:1002A000680600206802002068020020704770473E
:1002B0007047754600F02CF8AE4605006946534677
:1002C00020F00700854618B020B5FFF7D5FFBDE840
:1002D00020404FF000064FF000074FF000084FF0AD
:1002E000000B21F00701AC46ACE8C009ACE8C0093E
:1002F000ACE8C009ACE8C0098D46704710B50446AB
:10030000AFF300802046BDE81040FFF786BF000035
:10031000004870470400002001491820ABBEFEE7EA
:100320002600020070470000B948C06C40F013007E
:10033000B749C864B748006820F44010B549086060
:100340000846006840F4801008600846806820F481
:10035000401088600846806840F440108860084675
:10036000406820F4806048600846C06820F440106F
:10037000C8600846006820F440000860084600682D
:1003800040F4800008600846806820F440008860DF
:100390000846806840F4400088600846406820F4C1
:1003A000006048600846C06820F44000C860084605
:1003B000006820F0407008600846006840F08070D7
:1003C00008600846806820F04070886008468068B1
:1003D00040F0407088600846406820F480504860D3
:1003E0000846C06820F04070C8600846006820F0E9
:1003F000406008600846006840F080600860084679
:10040000806820F0406088600846806840F0406066
:1004100088600846406820F4005048600846C0687C
:1004200020F04060C8600846006820F04050086036
:100430000846006840F0805008600846806820F058
:10044000405088600846806840F040508860084608
:10045000406820F4804048600846C06820F0405062
:10046000C8600846006820F0404008600846006800
:1004700040F0804008600846806820F04040886076
:100480000846806840F0404088600846406820F494
:10049000004048600846C06820F04040C8600846F8
:1004A000006820F4403008600846006840F480305E
:1004B00008600846806820F44030886008468068FC
:1004C00040F4403088600846406820F480704860FE
:1004D0000846C06820F44030C8604FF09040006883
:1004E00020F003004FF0904108600846006840F09B
:1004F000010008600846806820F003008860084614
:10050000806840F0030088600846406820F00100E1
:1005100048600846C06820F00300C86008460068CC
:1005200020F0030008600846006840F00100086001
:100530000846806820F0030088600846806840F024
:10054000030088600846406820F0010048600846C3
:10055000C06820F00300C8600846006820F00C0066
:1005600008600846006840F004000860084680689B
:1005700020F00C0088600846806840F00C0088601D
:100580000846406820F0020048600846C06820F035
:100590000C00C8600846006820F03000086008467B
:1005A000006840F0100008600846806820F03000C5
:1005B00088600846806840F03000886008464068DF
:1005C00020F0040048600846C06820F03000C86091
:1005D0000846006820F0C00008600846006840F047
:1005E000400008600846806820F0C0008860084627
:1005F000806840F0C00088600846406820F008002D
:1006000048600846C06820F0C000C860704700001D
:1006100000100240001000484FF09041496900214D
:100620004FF0904251610A4949690021084A5161DD
:1006300011464969C20981EA8221054A51614FF098
:100640009041496981EAD0014FF090425161704771
:100650000010004802480068401C014908607047CB
:100660000000002010B500204FF0E021086140F2AA
:10067000E730486100208861401E0121002804DB2A
:100680000A07130E164A135406E00A07140E154AF9
:1006900000F00F031B1FD45400BF4FF0FF300028A1
:1006A00009DB00F01F02012191404209920002F192
:1006B000E022C2F8001100BF4FF0E020006940F0D6
:1006C00002004FF0E02108610846006920F00400B4
:1006D00008610846006940F00100086110BD000093
:1006E00000E400E018ED00E01448006840F001006C
:1006F000124908600846806820F00300886000BF47
:100700000E48006800F002000028F9D00B4800688D
:1007100020F0F000094908600846006840F07000C9
:1007200008600846006840F00800086000BF034801
:10073000006800F002000028F9D070470010024065
:10074000054A116800BF044A1268521A8242FAD35D
:100750000022014B1A607047000000204FF4F0396E
:100760004FF460444FF4C0454FF4005601274FF05A
:100770000108FFF7B9FFFFF7D7FDFFF773FF5BE055
:100780004FF0010823E0012718E04846FFF744FF37
:100790000120FFF7D5FF2046FFF73EFF0220FFF7BD
:1007A000CFFF2846FFF738FF0320FFF7C9FF304689
:1007B000FFF732FF0420FFF7C3FF7F1C052FE4DDA6
:1007C00008F101084FEA590964086D087608B8F184
:1007D0000D0FD8DD4FF001086400AD00F60023E0F6
:1007E000012718E04846FFF717FF0120FFF7A8FF91
:1007F0002046FFF711FF0220FFF7A2FF2846FFF770
:100800000BFF0320FFF79CFF3046FFF705FF042096
:10081000FFF796FF7F1C042FE4DD08F101084FEA83
:10082000490964006D007600B8F10D0FD8DD4FF076
:1008300001086408AD08F608A2E74FF04070E1EE49
:10084000100A70476408000800000020040000003F
:10085000C4010008680800080400002064060000C5
:08086000E001000800000000A7
:040000050800018965
:00000001FF
